{
  "_format": "hh-sol-artifact-1",
  "contractName": "NFT1155LazyMint",
  "sourceName": "contracts/NFT1155LazyMint.sol",
  "abi": [
    {
      "inputs": [
        {
          "internalType": "string",
          "name": "_name",
          "type": "string"
        },
        {
          "internalType": "string",
          "name": "_symbol",
          "type": "string"
        },
        {
          "internalType": "address payable",
          "name": "_feeRecipient",
          "type": "address"
        },
        {
          "internalType": "uint16",
          "name": "_platformFee",
          "type": "uint16"
        }
      ],
      "stateMutability": "nonpayable",
      "type": "constructor"
    },
    {
      "anonymous": false,
      "inputs": [
        {
          "indexed": true,
          "internalType": "address",
          "name": "account",
          "type": "address"
        },
        {
          "indexed": true,
          "internalType": "address",
          "name": "operator",
          "type": "address"
        },
        {
          "indexed": false,
          "internalType": "bool",
          "name": "approved",
          "type": "bool"
        }
      ],
      "name": "ApprovalForAll",
      "type": "event"
    },
    {
      "anonymous": false,
      "inputs": [
        {
          "indexed": true,
          "internalType": "address",
          "name": "previousOwner",
          "type": "address"
        },
        {
          "indexed": true,
          "internalType": "address",
          "name": "newOwner",
          "type": "address"
        }
      ],
      "name": "OwnershipTransferred",
      "type": "event"
    },
    {
      "anonymous": false,
      "inputs": [
        {
          "indexed": true,
          "internalType": "bytes32",
          "name": "role",
          "type": "bytes32"
        },
        {
          "indexed": true,
          "internalType": "bytes32",
          "name": "previousAdminRole",
          "type": "bytes32"
        },
        {
          "indexed": true,
          "internalType": "bytes32",
          "name": "newAdminRole",
          "type": "bytes32"
        }
      ],
      "name": "RoleAdminChanged",
      "type": "event"
    },
    {
      "anonymous": false,
      "inputs": [
        {
          "indexed": true,
          "internalType": "bytes32",
          "name": "role",
          "type": "bytes32"
        },
        {
          "indexed": true,
          "internalType": "address",
          "name": "account",
          "type": "address"
        },
        {
          "indexed": true,
          "internalType": "address",
          "name": "sender",
          "type": "address"
        }
      ],
      "name": "RoleGranted",
      "type": "event"
    },
    {
      "anonymous": false,
      "inputs": [
        {
          "indexed": true,
          "internalType": "bytes32",
          "name": "role",
          "type": "bytes32"
        },
        {
          "indexed": true,
          "internalType": "address",
          "name": "account",
          "type": "address"
        },
        {
          "indexed": true,
          "internalType": "address",
          "name": "sender",
          "type": "address"
        }
      ],
      "name": "RoleRevoked",
      "type": "event"
    },
    {
      "anonymous": false,
      "inputs": [
        {
          "indexed": true,
          "internalType": "uint256",
          "name": "tokenId",
          "type": "uint256"
        },
        {
          "indexed": true,
          "internalType": "address",
          "name": "creator",
          "type": "address"
        },
        {
          "indexed": true,
          "internalType": "address",
          "name": "buyer",
          "type": "address"
        },
        {
          "indexed": false,
          "internalType": "uint256",
          "name": "sellingPrice",
          "type": "uint256"
        }
      ],
      "name": "TokenMintedAndSold",
      "type": "event"
    },
    {
      "anonymous": false,
      "inputs": [
        {
          "indexed": true,
          "internalType": "address",
          "name": "operator",
          "type": "address"
        },
        {
          "indexed": true,
          "internalType": "address",
          "name": "from",
          "type": "address"
        },
        {
          "indexed": true,
          "internalType": "address",
          "name": "to",
          "type": "address"
        },
        {
          "indexed": false,
          "internalType": "uint256[]",
          "name": "ids",
          "type": "uint256[]"
        },
        {
          "indexed": false,
          "internalType": "uint256[]",
          "name": "values",
          "type": "uint256[]"
        }
      ],
      "name": "TransferBatch",
      "type": "event"
    },
    {
      "anonymous": false,
      "inputs": [
        {
          "indexed": true,
          "internalType": "address",
          "name": "operator",
          "type": "address"
        },
        {
          "indexed": true,
          "internalType": "address",
          "name": "from",
          "type": "address"
        },
        {
          "indexed": true,
          "internalType": "address",
          "name": "to",
          "type": "address"
        },
        {
          "indexed": false,
          "internalType": "uint256",
          "name": "id",
          "type": "uint256"
        },
        {
          "indexed": false,
          "internalType": "uint256",
          "name": "value",
          "type": "uint256"
        }
      ],
      "name": "TransferSingle",
      "type": "event"
    },
    {
      "anonymous": false,
      "inputs": [
        {
          "indexed": false,
          "internalType": "string",
          "name": "value",
          "type": "string"
        },
        {
          "indexed": true,
          "internalType": "uint256",
          "name": "id",
          "type": "uint256"
        }
      ],
      "name": "URI",
      "type": "event"
    },
    {
      "anonymous": false,
      "inputs": [
        {
          "indexed": false,
          "internalType": "uint16",
          "name": "platformFee",
          "type": "uint16"
        }
      ],
      "name": "UpdatePlatformFee",
      "type": "event"
    },
    {
      "anonymous": false,
      "inputs": [
        {
          "indexed": false,
          "internalType": "address payable",
          "name": "platformFeeRecipient",
          "type": "address"
        }
      ],
      "name": "UpdatePlatformFeeRecipient",
      "type": "event"
    },
    {
      "inputs": [],
      "name": "DEFAULT_ADMIN_ROLE",
      "outputs": [
        {
          "internalType": "bytes32",
          "name": "",
          "type": "bytes32"
        }
      ],
      "stateMutability": "view",
      "type": "function"
    },
    {
      "inputs": [
        {
          "internalType": "address",
          "name": "account",
          "type": "address"
        },
        {
          "internalType": "uint256",
          "name": "id",
          "type": "uint256"
        }
      ],
      "name": "balanceOf",
      "outputs": [
        {
          "internalType": "uint256",
          "name": "",
          "type": "uint256"
        }
      ],
      "stateMutability": "view",
      "type": "function"
    },
    {
      "inputs": [
        {
          "internalType": "address[]",
          "name": "accounts",
          "type": "address[]"
        },
        {
          "internalType": "uint256[]",
          "name": "ids",
          "type": "uint256[]"
        }
      ],
      "name": "balanceOfBatch",
      "outputs": [
        {
          "internalType": "uint256[]",
          "name": "",
          "type": "uint256[]"
        }
      ],
      "stateMutability": "view",
      "type": "function"
    },
    {
      "inputs": [
        {
          "internalType": "uint256",
          "name": "",
          "type": "uint256"
        }
      ],
      "name": "creators",
      "outputs": [
        {
          "internalType": "address",
          "name": "",
          "type": "address"
        }
      ],
      "stateMutability": "view",
      "type": "function"
    },
    {
      "inputs": [],
      "name": "feeRecipient",
      "outputs": [
        {
          "internalType": "address payable",
          "name": "",
          "type": "address"
        }
      ],
      "stateMutability": "view",
      "type": "function"
    },
    {
      "inputs": [
        {
          "internalType": "bytes32",
          "name": "role",
          "type": "bytes32"
        }
      ],
      "name": "getRoleAdmin",
      "outputs": [
        {
          "internalType": "bytes32",
          "name": "",
          "type": "bytes32"
        }
      ],
      "stateMutability": "view",
      "type": "function"
    },
    {
      "inputs": [],
      "name": "getSignerAddress",
      "outputs": [
        {
          "internalType": "address",
          "name": "",
          "type": "address"
        }
      ],
      "stateMutability": "view",
      "type": "function"
    },
    {
      "inputs": [
        {
          "internalType": "bytes32",
          "name": "role",
          "type": "bytes32"
        },
        {
          "internalType": "address",
          "name": "account",
          "type": "address"
        }
      ],
      "name": "grantRole",
      "outputs": [],
      "stateMutability": "nonpayable",
      "type": "function"
    },
    {
      "inputs": [
        {
          "internalType": "bytes32",
          "name": "role",
          "type": "bytes32"
        },
        {
          "internalType": "address",
          "name": "account",
          "type": "address"
        }
      ],
      "name": "hasRole",
      "outputs": [
        {
          "internalType": "bool",
          "name": "",
          "type": "bool"
        }
      ],
      "stateMutability": "view",
      "type": "function"
    },
    {
      "inputs": [
        {
          "internalType": "address",
          "name": "account",
          "type": "address"
        },
        {
          "internalType": "address",
          "name": "operator",
          "type": "address"
        }
      ],
      "name": "isApprovedForAll",
      "outputs": [
        {
          "internalType": "bool",
          "name": "",
          "type": "bool"
        }
      ],
      "stateMutability": "view",
      "type": "function"
    },
    {
      "inputs": [],
      "name": "name",
      "outputs": [
        {
          "internalType": "string",
          "name": "",
          "type": "string"
        }
      ],
      "stateMutability": "view",
      "type": "function"
    },
    {
      "inputs": [],
      "name": "owner",
      "outputs": [
        {
          "internalType": "address",
          "name": "",
          "type": "address"
        }
      ],
      "stateMutability": "view",
      "type": "function"
    },
    {
      "inputs": [],
      "name": "platformFee",
      "outputs": [
        {
          "internalType": "uint16",
          "name": "",
          "type": "uint16"
        }
      ],
      "stateMutability": "view",
      "type": "function"
    },
    {
      "inputs": [
        {
          "internalType": "address",
          "name": "creator",
          "type": "address"
        },
        {
          "internalType": "address",
          "name": "redeemer",
          "type": "address"
        },
        {
          "components": [
            {
              "internalType": "uint256",
              "name": "tokenId",
              "type": "uint256"
            },
            {
              "internalType": "uint256",
              "name": "sellingPrice",
              "type": "uint256"
            },
            {
              "internalType": "uint256",
              "name": "quantity",
              "type": "uint256"
            },
            {
              "internalType": "uint16",
              "name": "royaltyBasisPoints",
              "type": "uint16"
            },
            {
              "internalType": "string",
              "name": "tokenUri",
              "type": "string"
            },
            {
              "internalType": "bytes",
              "name": "signature",
              "type": "bytes"
            }
          ],
          "internalType": "struct NFTVoucher",
          "name": "voucher",
          "type": "tuple"
        }
      ],
      "name": "redeemToken",
      "outputs": [
        {
          "internalType": "uint256",
          "name": "",
          "type": "uint256"
        }
      ],
      "stateMutability": "payable",
      "type": "function"
    },
    {
      "inputs": [],
      "name": "renounceOwnership",
      "outputs": [],
      "stateMutability": "nonpayable",
      "type": "function"
    },
    {
      "inputs": [
        {
          "internalType": "bytes32",
          "name": "role",
          "type": "bytes32"
        },
        {
          "internalType": "address",
          "name": "account",
          "type": "address"
        }
      ],
      "name": "renounceRole",
      "outputs": [],
      "stateMutability": "nonpayable",
      "type": "function"
    },
    {
      "inputs": [
        {
          "internalType": "bytes32",
          "name": "role",
          "type": "bytes32"
        },
        {
          "internalType": "address",
          "name": "account",
          "type": "address"
        }
      ],
      "name": "revokeRole",
      "outputs": [],
      "stateMutability": "nonpayable",
      "type": "function"
    },
    {
      "inputs": [
        {
          "internalType": "uint256",
          "name": "tokenId",
          "type": "uint256"
        },
        {
          "internalType": "uint256",
          "name": "value",
          "type": "uint256"
        }
      ],
      "name": "royaltyInfo",
      "outputs": [
        {
          "internalType": "address",
          "name": "receiver",
          "type": "address"
        },
        {
          "internalType": "uint256",
          "name": "royaltyAmount",
          "type": "uint256"
        }
      ],
      "stateMutability": "view",
      "type": "function"
    },
    {
      "inputs": [
        {
          "internalType": "address",
          "name": "from",
          "type": "address"
        },
        {
          "internalType": "address",
          "name": "to",
          "type": "address"
        },
        {
          "internalType": "uint256[]",
          "name": "ids",
          "type": "uint256[]"
        },
        {
          "internalType": "uint256[]",
          "name": "amounts",
          "type": "uint256[]"
        },
        {
          "internalType": "bytes",
          "name": "data",
          "type": "bytes"
        }
      ],
      "name": "safeBatchTransferFrom",
      "outputs": [],
      "stateMutability": "nonpayable",
      "type": "function"
    },
    {
      "inputs": [
        {
          "internalType": "address",
          "name": "from",
          "type": "address"
        },
        {
          "internalType": "address",
          "name": "to",
          "type": "address"
        },
        {
          "internalType": "uint256",
          "name": "id",
          "type": "uint256"
        },
        {
          "internalType": "uint256",
          "name": "amount",
          "type": "uint256"
        },
        {
          "internalType": "bytes",
          "name": "data",
          "type": "bytes"
        }
      ],
      "name": "safeTransferFrom",
      "outputs": [],
      "stateMutability": "nonpayable",
      "type": "function"
    },
    {
      "inputs": [
        {
          "internalType": "address",
          "name": "operator",
          "type": "address"
        },
        {
          "internalType": "bool",
          "name": "approved",
          "type": "bool"
        }
      ],
      "name": "setApprovalForAll",
      "outputs": [],
      "stateMutability": "nonpayable",
      "type": "function"
    },
    {
      "inputs": [
        {
          "internalType": "address",
          "name": "_to",
          "type": "address"
        },
        {
          "internalType": "uint256[]",
          "name": "_tokenIds",
          "type": "uint256[]"
        }
      ],
      "name": "setCreator",
      "outputs": [],
      "stateMutability": "nonpayable",
      "type": "function"
    },
    {
      "inputs": [
        {
          "internalType": "address",
          "name": "_address",
          "type": "address"
        }
      ],
      "name": "setSignerAddress",
      "outputs": [],
      "stateMutability": "nonpayable",
      "type": "function"
    },
    {
      "inputs": [
        {
          "internalType": "bytes4",
          "name": "interfaceId",
          "type": "bytes4"
        }
      ],
      "name": "supportsInterface",
      "outputs": [
        {
          "internalType": "bool",
          "name": "",
          "type": "bool"
        }
      ],
      "stateMutability": "view",
      "type": "function"
    },
    {
      "inputs": [],
      "name": "symbol",
      "outputs": [
        {
          "internalType": "string",
          "name": "",
          "type": "string"
        }
      ],
      "stateMutability": "view",
      "type": "function"
    },
    {
      "inputs": [
        {
          "internalType": "uint256",
          "name": "_tokenId",
          "type": "uint256"
        }
      ],
      "name": "tokenURI",
      "outputs": [
        {
          "internalType": "string",
          "name": "",
          "type": "string"
        }
      ],
      "stateMutability": "view",
      "type": "function"
    },
    {
      "inputs": [
        {
          "internalType": "uint256",
          "name": "_tokenId",
          "type": "uint256"
        }
      ],
      "name": "totalSupply",
      "outputs": [
        {
          "internalType": "uint256",
          "name": "",
          "type": "uint256"
        }
      ],
      "stateMutability": "view",
      "type": "function"
    },
    {
      "inputs": [
        {
          "internalType": "address",
          "name": "newOwner",
          "type": "address"
        }
      ],
      "name": "transferOwnership",
      "outputs": [],
      "stateMutability": "nonpayable",
      "type": "function"
    },
    {
      "inputs": [
        {
          "internalType": "uint16",
          "name": "_platformFee",
          "type": "uint16"
        }
      ],
      "name": "updatePlatformFee",
      "outputs": [],
      "stateMutability": "nonpayable",
      "type": "function"
    },
    {
      "inputs": [
        {
          "internalType": "address payable",
          "name": "_platformFeeRecipient",
          "type": "address"
        }
      ],
      "name": "updatePlatformFeeRecipient",
      "outputs": [],
      "stateMutability": "nonpayable",
      "type": "function"
    },
    {
      "inputs": [
        {
          "internalType": "uint256",
          "name": "",
          "type": "uint256"
        }
      ],
      "name": "uri",
      "outputs": [
        {
          "internalType": "string",
          "name": "",
          "type": "string"
        }
      ],
      "stateMutability": "view",
      "type": "function"
    },
    {
      "inputs": [],
      "name": "withdraw",
      "outputs": [],
      "stateMutability": "payable",
      "type": "function"
    }
  ],
  "bytecode": "0x60806040523480156200001157600080fd5b506040516200353e3803806200353e833981016040819052620000349162000281565b6040805160208101909152600081526200004e81620000f5565b50600380546001600160a01b0319163390811790915560405181906000907f8be0079c531659141344cd1fd0a4f28419497f9722a3daafe3b4186f6b6457e0908290a3508351620000a79060089060208701906200010e565b508251620000bd9060099060208601906200010e565b506007805461ffff909216600160a01b026001600160b01b03199092166001600160a01b039093169290921717905550620003659050565b80516200010a9060029060208401906200010e565b5050565b8280546200011c9062000328565b90600052602060002090601f0160209004810192826200014057600085556200018b565b82601f106200015b57805160ff19168380011785556200018b565b828001600101855582156200018b579182015b828111156200018b5782518255916020019190600101906200016e565b50620001999291506200019d565b5090565b5b808211156200019957600081556001016200019e565b634e487b7160e01b600052604160045260246000fd5b600082601f830112620001dc57600080fd5b81516001600160401b0380821115620001f957620001f9620001b4565b604051601f8301601f19908116603f01168101908282118183101715620002245762000224620001b4565b816040528381526020925086838588010111156200024157600080fd5b600091505b8382101562000265578582018301518183018401529082019062000246565b83821115620002775760008385830101525b9695505050505050565b600080600080608085870312156200029857600080fd5b84516001600160401b0380821115620002b057600080fd5b620002be88838901620001ca565b95506020870151915080821115620002d557600080fd5b50620002e487828801620001ca565b604087015190945090506001600160a01b03811681146200030457600080fd5b606086015190925061ffff811681146200031d57600080fd5b939692955090935050565b600181811c908216806200033d57607f821691505b602082108114156200035f57634e487b7160e01b600052602260045260246000fd5b50919050565b6131c980620003756000396000f3fe6080604052600436106101e25760003560e01c80638da5cb5b11610102578063c87b56dd11610095578063e985e9c511610064578063e985e9c5146105cc578063f242432a14610615578063f2fde38b14610635578063f5fe7f711461065557600080fd5b8063c87b56dd14610536578063cd53d08e14610556578063d2a6b51a1461058c578063d547741f146105ac57600080fd5b8063a22cb465116100d1578063a22cb465146104b6578063a9bb84bb146104d6578063afb06952146104e9578063bd85b0391461050957600080fd5b80638da5cb5b1461044e57806391d148541461046c57806395d89b411461048c578063a217fddf146104a157600080fd5b80632a55205a1161017a5780633ccfd60b116101495780633ccfd60b146103e457806346904840146103ec5780634e1273f41461040c578063715018a61461043957600080fd5b80632a55205a146103455780632eb2c2d6146103845780632f2ff15d146103a457806336568abe146103c457600080fd5b80630e89341c116101b65780630e89341c1461028e5780631a296e02146102ae578063248a9ca3146102e057806326232a2e1461031057600080fd5b8062fdd58e146101e757806301ffc9a71461021a578063046dc1661461024a57806306fdde031461026c575b600080fd5b3480156101f357600080fd5b506102076102023660046126f9565b610675565b6040519081526020015b60405180910390f35b34801561022657600080fd5b5061023a61023536600461273b565b61070c565b6040519015158152602001610211565b34801561025657600080fd5b5061026a610265366004612758565b610747565b005b34801561027857600080fd5b50610281610793565b60405161021191906127d1565b34801561029a57600080fd5b506102816102a93660046127e4565b610821565b3480156102ba57600080fd5b506006546001600160a01b03165b6040516001600160a01b039091168152602001610211565b3480156102ec57600080fd5b506102076102fb3660046127e4565b60009081526004602052604090206001015490565b34801561031c57600080fd5b5060075461033290600160a01b900461ffff1681565b60405161ffff9091168152602001610211565b34801561035157600080fd5b506103656103603660046127fd565b6108b5565b604080516001600160a01b039093168352602083019190915201610211565b34801561039057600080fd5b5061026a61039f36600461296b565b610913565b3480156103b057600080fd5b5061026a6103bf366004612a19565b610bbe565b3480156103d057600080fd5b5061026a6103df366004612a19565b610be9565b61026a610c67565b3480156103f857600080fd5b506007546102c8906001600160a01b031681565b34801561041857600080fd5b5061042c610427366004612a49565b610d29565b6040516102119190612b47565b34801561044557600080fd5b5061026a610e53565b34801561045a57600080fd5b506003546001600160a01b03166102c8565b34801561047857600080fd5b5061023a610487366004612a19565b610ec7565b34801561049857600080fd5b50610281610ef2565b3480156104ad57600080fd5b50610207600081565b3480156104c257600080fd5b5061026a6104d1366004612b5a565b610eff565b6102076104e4366004612b8d565b610fd6565b3480156104f557600080fd5b5061026a610504366004612bf6565b6113ff565b34801561051557600080fd5b506102076105243660046127e4565b6000908152600b602052604090205490565b34801561054257600080fd5b506102816105513660046127e4565b611480565b34801561056257600080fd5b506102c86105713660046127e4565b600a602052600090815260409020546001600160a01b031681565b34801561059857600080fd5b5061026a6105a7366004612c1a565b61149d565b3480156105b857600080fd5b5061026a6105c7366004612a19565b61152c565b3480156105d857600080fd5b5061023a6105e7366004612c60565b6001600160a01b03918216600090815260016020908152604080832093909416825291909152205460ff1690565b34801561062157600080fd5b5061026a610630366004612c8e565b611552565b34801561064157600080fd5b5061026a610650366004612758565b611702565b34801561066157600080fd5b5061026a610670366004612758565b6117ed565b60006001600160a01b0383166106e65760405162461bcd60e51b815260206004820152602b60248201527f455243313135353a2062616c616e636520717565727920666f7220746865207a60448201526a65726f206164647265737360a81b60648201526084015b60405180910390fd5b506000908152602081815260408083206001600160a01b03949094168352929052205490565b600061071782611865565b80610726575061072682611886565b8061074157506001600160e01b0319821663152a902d60e11b145b92915050565b6003546001600160a01b031633146107715760405162461bcd60e51b81526004016106dd90612cf7565b600680546001600160a01b0319166001600160a01b0392909216919091179055565b600880546107a090612d2c565b80601f01602080910402602001604051908101604052809291908181526020018280546107cc90612d2c565b80156108195780601f106107ee57610100808354040283529160200191610819565b820191906000526020600020905b8154815290600101906020018083116107fc57829003601f168201915b505050505081565b60606002805461083090612d2c565b80601f016020809104026020016040519081016040528092919081815260200182805461085c90612d2c565b80156108a95780601f1061087e576101008083540402835291602001916108a9565b820191906000526020600020905b81548152906001019060200180831161088c57829003601f168201915b50505050509050919050565b60008281526005602090815260408083208151808301909252546001600160a01b038116808352600160a01b90910462ffffff169282018390529291612710906108ff9086612d7d565b6109099190612d9c565b9150509250929050565b81518351146109755760405162461bcd60e51b815260206004820152602860248201527f455243313135353a2069647320616e6420616d6f756e7473206c656e677468206044820152670dad2e6dac2e8c6d60c31b60648201526084016106dd565b6001600160a01b03841661099b5760405162461bcd60e51b81526004016106dd90612dbe565b6001600160a01b0385163314806109b757506109b785336105e7565b610a1e5760405162461bcd60e51b815260206004820152603260248201527f455243313135353a207472616e736665722063616c6c6572206973206e6f74206044820152711bdddb995c881b9bdc88185c1c1c9bdd995960721b60648201526084016106dd565b3360005b8451811015610b50576000858281518110610a3f57610a3f612e03565b602002602001015190506000858381518110610a5d57610a5d612e03565b602090810291909101810151600084815280835260408082206001600160a01b038e168352909352919091205490915081811015610aad5760405162461bcd60e51b81526004016106dd90612e19565b610ab78282612e63565b60008085815260200190815260200160002060008c6001600160a01b03166001600160a01b03168152602001908152602001600020819055508160008085815260200190815260200160002060008b6001600160a01b03166001600160a01b031681526020019081526020016000206000828254610b359190612e7a565b9250508190555050505080610b4990612e92565b9050610a22565b50846001600160a01b0316866001600160a01b0316826001600160a01b03167f4a39dc06d4c0dbc64b70af90fd698a233a518aa5d07e595d983b8c0526c8f7fb8787604051610ba0929190612ead565b60405180910390a4610bb68187878787876118d6565b505050505050565b600082815260046020526040902060010154610bda8133611a32565b610be48383611a96565b505050565b6001600160a01b0381163314610c595760405162461bcd60e51b815260206004820152602f60248201527f416363657373436f6e74726f6c3a2063616e206f6e6c792072656e6f756e636560448201526e103937b632b9903337b91039b2b63360891b60648201526084016106dd565b610c638282611b1c565b5050565b6003546001600160a01b03163314610c915760405162461bcd60e51b81526004016106dd90612cf7565b6007546040516000916001600160a01b03169047908381818185875af1925050503d8060008114610cde576040519150601f19603f3d011682016040523d82523d6000602084013e610ce3565b606091505b5050905080610d265760405162461bcd60e51b815260206004820152600f60248201526e15da5d1a191c985dc819985a5b1959608a1b60448201526064016106dd565b50565b60608151835114610d8e5760405162461bcd60e51b815260206004820152602960248201527f455243313135353a206163636f756e747320616e6420696473206c656e677468604482015268040dad2e6dac2e8c6d60bb1b60648201526084016106dd565b6000835167ffffffffffffffff811115610daa57610daa61281f565b604051908082528060200260200182016040528015610dd3578160200160208202803683370190505b50905060005b8451811015610e4b57610e1e858281518110610df757610df7612e03565b6020026020010151858381518110610e1157610e11612e03565b6020026020010151610675565b828281518110610e3057610e30612e03565b6020908102919091010152610e4481612e92565b9050610dd9565b509392505050565b6003546001600160a01b03163314610e7d5760405162461bcd60e51b81526004016106dd90612cf7565b6003546040516000916001600160a01b0316907f8be0079c531659141344cd1fd0a4f28419497f9722a3daafe3b4186f6b6457e0908390a3600380546001600160a01b0319169055565b60009182526004602090815260408084206001600160a01b0393909316845291905290205460ff1690565b600980546107a090612d2c565b336001600160a01b0383161415610f6a5760405162461bcd60e51b815260206004820152602960248201527f455243313135353a2073657474696e6720617070726f76616c20737461747573604482015268103337b91039b2b63360b91b60648201526084016106dd565b3360008181526001602090815260408083206001600160a01b03871680855290835292819020805460ff191686151590811790915590519081529192917f17307eab39ab6107e8899845ad3d59bd9653f200f220920489ca2b5937696c31910160405180910390a35050565b600080610fe283611b83565b6006549091506001600160a01b0380831691161461104c5760405162461bcd60e51b815260206004820152602160248201527f5369676e617475726520696e76616c6964206f7220756e617574686f72697a656044820152601960fa1b60648201526084016106dd565b60008360200135116110a05760405162461bcd60e51b815260206004820152601c60248201527f546f6b656e206973206e6f74206c697374656420666f722073616c650000000060448201526064016106dd565b6110b260408401356020850135612d7d565b3410156111015760405162461bcd60e51b815260206004820152601c60248201527f496e73756666696369656e742066756e647320746f2072656465656d0000000060448201526064016106dd565b611124858460000135856040013560405180602001604052806000815250611c84565b61114a6040518060400160405280600581526020016417db5a5b9d60da1b815250611d85565b82356000818152600a6020526040902080546001600160a01b0319166001600160a01b0388161790556111be906111846080860186612ed2565b8080601f016020809104026020016040519081016040528093929190818152602001838380828437600092019190915250611dc892505050565b6111eb6040518060400160405280600c81526020016b5f736574546f6b656e55524960a01b815250611d85565b6001600160a01b0380861660009081526001602090815260408083209388168352929052205460ff166112715760405162461bcd60e51b815260206004820152602860248201527f546f6b656e2073686f756c6420626520617070726f76656420666f72207472616044820152676e73666572696e6760c01b60648201526084016106dd565b6112a3604051806040016040528060118152602001701cd95d105c1c1c9bdd985b119bdc905b1b607a1b815250611d85565b6112c785858560000135866040013560405180602001604052806000815250611552565b6112f86040518060400160405280601081526020016f736166655472616e7366657246726f6d60801b815250611d85565b6113028534611e63565b5061132e6040518060400160405280600a8152602001695f73656e6446756e647360b01b815250611d85565b6113498335866113446080870160608801612bf6565b611ead565b506113796040518060400160405280600e81526020016d5f73617665526f79616c7469657360901b815250611d85565b836001600160a01b0316856001600160a01b031684600001357f64a06aadbee3d3858c4ab0a7062b9d57636e9a70f3a172736548667f51d7e372346040516113c391815260200190565b60405180910390a482356000908152600b60205260408082208054918601359290916113f0908490612e7a565b90915550509135949350505050565b6003546001600160a01b031633146114295760405162461bcd60e51b81526004016106dd90612cf7565b6007805461ffff60a01b1916600160a01b61ffff8416908102919091179091556040519081527fcabead39256298cdf7d1228eee68b47bc54a2192283d8d93574da08d2d7ac303906020015b60405180910390a150565b6000818152600c6020526040902080546060919061083090612d2c565b6001600160a01b0382166114e55760405162461bcd60e51b815260206004820152600f60248201526e496e76616c6964206164647265737360881b60448201526064016106dd565b60005b8151811015610be457600082828151811061150557611505612e03565b602002602001015190506115198482611ed9565b508061152481612e92565b9150506114e8565b6000828152600460205260409020600101546115488133611a32565b610be48383611b1c565b6001600160a01b0384166115785760405162461bcd60e51b81526004016106dd90612dbe565b6001600160a01b038516331480611594575061159485336105e7565b6115f25760405162461bcd60e51b815260206004820152602960248201527f455243313135353a2063616c6c6572206973206e6f74206f776e6572206e6f7260448201526808185c1c1c9bdd995960ba1b60648201526084016106dd565b3361161281878761160288611f67565b61160b88611f67565b5050505050565b6000848152602081815260408083206001600160a01b038a168452909152902054838110156116535760405162461bcd60e51b81526004016106dd90612e19565b61165d8482612e63565b6000868152602081815260408083206001600160a01b038c81168552925280832093909355881681529081208054869290611699908490612e7a565b909155505060408051868152602081018690526001600160a01b03808916928a821692918616917fc3d58168c5ae7397731d063d5bbf3d657854427343f4c083240f7aacaa2d0f62910160405180910390a46116f9828888888888611fb2565b50505050505050565b6003546001600160a01b0316331461172c5760405162461bcd60e51b81526004016106dd90612cf7565b6001600160a01b0381166117915760405162461bcd60e51b815260206004820152602660248201527f4f776e61626c653a206e6577206f776e657220697320746865207a65726f206160448201526564647265737360d01b60648201526084016106dd565b6003546040516001600160a01b038084169216907f8be0079c531659141344cd1fd0a4f28419497f9722a3daafe3b4186f6b6457e090600090a3600380546001600160a01b0319166001600160a01b0392909216919091179055565b6003546001600160a01b031633146118175760405162461bcd60e51b81526004016106dd90612cf7565b600780546001600160a01b0319166001600160a01b0383169081179091556040519081527fe57e7c1f36cc83fade34e32351e6eee7eb9da532662b1b5da10c631e8222aca790602001611475565b60006001600160e01b03198216637965db0b60e01b14806107415750610741825b60006001600160e01b03198216636cdb3d1360e11b14806118b757506001600160e01b031982166303a24d0760e21b145b8061074157506301ffc9a760e01b6001600160e01b0319831614610741565b6001600160a01b0384163b15610bb65760405163bc197c8160e01b81526001600160a01b0385169063bc197c819061191a9089908990889088908890600401612f20565b6020604051808303816000875af1925050508015611955575060408051601f3d908101601f1916820190925261195291810190612f7e565b60015b611a0257611961612f9b565b806308c379a0141561199b5750611976612fb7565b80611981575061199d565b8060405162461bcd60e51b81526004016106dd91906127d1565b505b60405162461bcd60e51b815260206004820152603460248201527f455243313135353a207472616e7366657220746f206e6f6e20455243313135356044820152732932b1b2b4bb32b91034b6b83632b6b2b73a32b960611b60648201526084016106dd565b6001600160e01b0319811663bc197c8160e01b146116f95760405162461bcd60e51b81526004016106dd90613041565b611a3c8282610ec7565b610c6357611a54816001600160a01b0316601461206d565b611a5f83602061206d565b604051602001611a70929190613089565b60408051601f198184030181529082905262461bcd60e51b82526106dd916004016127d1565b611aa08282610ec7565b610c635760008281526004602090815260408083206001600160a01b03851684529091529020805460ff19166001179055611ad83390565b6001600160a01b0316816001600160a01b0316837f2f8788117e7eff1d82e926ec794901d17c78024a50270940304540a733656f0d60405160405180910390a45050565b611b268282610ec7565b15610c635760008281526004602090815260408083206001600160a01b0385168085529252808320805460ff1916905551339285917ff6391f5c32d9c69d2a47ea670b442974b53935d1edc7fd64eb21e047a839171b9190a45050565b600080823560208401356040850135611ba26080870160608801612bf6565b611baf6080880188612ed2565b604051602001611bc4969594939291906130fe565b604051602081830303815290604052805190602001209050611c7d611c36826040517f19457468657265756d205369676e6564204d6573736167653a0a3332000000006020820152603c8101829052600090605c01604051602081830303815290604052805190602001209050919050565b611c4360a0860186612ed2565b8080601f01602080910402602001604051908101604052809392919081815260200183838082843760009201919091525061220992505050565b9392505050565b6001600160a01b038416611ce45760405162461bcd60e51b815260206004820152602160248201527f455243313135353a206d696e7420746f20746865207a65726f206164647265736044820152607360f81b60648201526084016106dd565b33611cf58160008761160288611f67565b6000848152602081815260408083206001600160a01b038916845290915281208054859290611d25908490612e7a565b909155505060408051858152602081018590526001600160a01b0380881692600092918516917fc3d58168c5ae7397731d063d5bbf3d657854427343f4c083240f7aacaa2d0f62910160405180910390a461160b81600087878787611fb2565b610d2681604051602401611d9991906127d1565b60408051601f198184030181529190526020810180516001600160e01b031663104c13eb60e21b1790526122bf565b6000828152600a60205260409020546001600160a01b0316611e445760405162461bcd60e51b815260206004820152602f60248201527f4552433131353555524953746f726167653a2055524920736574206f66206e6f60448201526e3732bc34b9ba32b73a103a37b5b2b760891b60648201526084016106dd565b6000828152600c602090815260409091208251610be49284019061264b565b600754600090819061271090611e8490600160a01b900461ffff1685612d7d565b611e8e9190612d9c565b9050611ea384611e9e8386612e63565b6122e0565b5060019392505050565b600061ffff821615611ecd57611ec884848461ffff166123f9565b611ea3565b611ea3848460006123f9565b6000818152600a602052604090205481906001600160a01b03163314611f385760405162461bcd60e51b815260206004820152601460248201527313db9b1e4818dc99585d1bdc88185b1b1bddd95960621b60448201526064016106dd565b506000908152600a6020526040902080546001600160a01b0319166001600160a01b0392909216919091179055565b60408051600180825281830190925260609160009190602080830190803683370190505090508281600081518110611fa157611fa1612e03565b602090810291909101015292915050565b6001600160a01b0384163b15610bb65760405163f23a6e6160e01b81526001600160a01b0385169063f23a6e6190611ff69089908990889088908890600401613137565b6020604051808303816000875af1925050508015612031575060408051601f3d908101601f1916820190925261202e91810190612f7e565b60015b61203d57611961612f9b565b6001600160e01b0319811663f23a6e6160e01b146116f95760405162461bcd60e51b81526004016106dd90613041565b6060600061207c836002612d7d565b612087906002612e7a565b67ffffffffffffffff81111561209f5761209f61281f565b6040519080825280601f01601f1916602001820160405280156120c9576020820181803683370190505b509050600360fc1b816000815181106120e4576120e4612e03565b60200101906001600160f81b031916908160001a905350600f60fb1b8160018151811061211357612113612e03565b60200101906001600160f81b031916908160001a9053506000612137846002612d7d565b612142906001612e7a565b90505b60018111156121ba576f181899199a1a9b1b9c1cb0b131b232b360811b85600f166010811061217657612176612e03565b1a60f81b82828151811061218c5761218c612e03565b60200101906001600160f81b031916908160001a90535060049490941c936121b38161317c565b9050612145565b508315611c7d5760405162461bcd60e51b815260206004820181905260248201527f537472696e67733a20686578206c656e67746820696e73756666696369656e7460448201526064016106dd565b6000806000808451604114156122335750505060208201516040830151606084015160001a6122a9565b8451604014156122615750505060408201516020830151906001600160ff1b0381169060ff1c601b016122a9565b60405162461bcd60e51b815260206004820152601f60248201527f45434453413a20696e76616c6964207369676e6174757265206c656e6774680060448201526064016106dd565b6122b5868285856124a2565b9695505050505050565b80516a636f6e736f6c652e6c6f67602083016000808483855afa5050505050565b804710156123305760405162461bcd60e51b815260206004820152601d60248201527f416464726573733a20696e73756666696369656e742062616c616e636500000060448201526064016106dd565b6000826001600160a01b03168260405160006040518083038185875af1925050503d806000811461237d576040519150601f19603f3d011682016040523d82523d6000602084013e612382565b606091505b5050905080610be45760405162461bcd60e51b815260206004820152603a60248201527f416464726573733a20756e61626c6520746f2073656e642076616c75652c207260448201527f6563697069656e74206d6179206861766520726576657274656400000000000060648201526084016106dd565b61271081111561244b5760405162461bcd60e51b815260206004820152601a60248201527f45524332393831526f79616c746965733a20546f6f206869676800000000000060448201526064016106dd565b6040805180820182526001600160a01b03938416815262ffffff928316602080830191825260009687526005905291909420935184549151909216600160a01b026001600160b81b03199091169190921617179055565b60007f7fffffffffffffffffffffffffffffff5d576e7357a4501ddfe92f46681b20a082111561251f5760405162461bcd60e51b815260206004820152602260248201527f45434453413a20696e76616c6964207369676e6174757265202773272076616c604482015261756560f01b60648201526084016106dd565b8360ff16601b148061253457508360ff16601c145b61258b5760405162461bcd60e51b815260206004820152602260248201527f45434453413a20696e76616c6964207369676e6174757265202776272076616c604482015261756560f01b60648201526084016106dd565b6040805160008082526020820180845288905260ff871692820192909252606081018590526080810184905260019060a0016020604051602081039080840390855afa1580156125df573d6000803e3d6000fd5b5050604051601f1901519150506001600160a01b0381166126425760405162461bcd60e51b815260206004820152601860248201527f45434453413a20696e76616c6964207369676e6174757265000000000000000060448201526064016106dd565b95945050505050565b82805461265790612d2c565b90600052602060002090601f01602090048101928261267957600085556126bf565b82601f1061269257805160ff19168380011785556126bf565b828001600101855582156126bf579182015b828111156126bf5782518255916020019190600101906126a4565b506126cb9291506126cf565b5090565b5b808211156126cb57600081556001016126d0565b6001600160a01b0381168114610d2657600080fd5b6000806040838503121561270c57600080fd5b8235612717816126e4565b946020939093013593505050565b6001600160e01b031981168114610d2657600080fd5b60006020828403121561274d57600080fd5b8135611c7d81612725565b60006020828403121561276a57600080fd5b8135611c7d816126e4565b60005b83811015612790578181015183820152602001612778565b8381111561279f576000848401525b50505050565b600081518084526127bd816020860160208601612775565b601f01601f19169290920160200192915050565b602081526000611c7d60208301846127a5565b6000602082840312156127f657600080fd5b5035919050565b6000806040838503121561281057600080fd5b50508035926020909101359150565b634e487b7160e01b600052604160045260246000fd5b601f8201601f1916810167ffffffffffffffff8111828210171561285b5761285b61281f565b6040525050565b600067ffffffffffffffff82111561287c5761287c61281f565b5060051b60200190565b600082601f83011261289757600080fd5b813560206128a482612862565b6040516128b18282612835565b83815260059390931b85018201928281019150868411156128d157600080fd5b8286015b848110156128ec57803583529183019183016128d5565b509695505050505050565b600082601f83011261290857600080fd5b813567ffffffffffffffff8111156129225761292261281f565b604051612939601f8301601f191660200182612835565b81815284602083860101111561294e57600080fd5b816020850160208301376000918101602001919091529392505050565b600080600080600060a0868803121561298357600080fd5b853561298e816126e4565b9450602086013561299e816126e4565b9350604086013567ffffffffffffffff808211156129bb57600080fd5b6129c789838a01612886565b945060608801359150808211156129dd57600080fd5b6129e989838a01612886565b935060808801359150808211156129ff57600080fd5b50612a0c888289016128f7565b9150509295509295909350565b60008060408385031215612a2c57600080fd5b823591506020830135612a3e816126e4565b809150509250929050565b60008060408385031215612a5c57600080fd5b823567ffffffffffffffff80821115612a7457600080fd5b818501915085601f830112612a8857600080fd5b81356020612a9582612862565b604051612aa28282612835565b83815260059390931b8501820192828101915089841115612ac257600080fd5b948201945b83861015612ae9578535612ada816126e4565b82529482019490820190612ac7565b96505086013592505080821115612aff57600080fd5b5061090985828601612886565b600081518084526020808501945080840160005b83811015612b3c57815187529582019590820190600101612b20565b509495945050505050565b602081526000611c7d6020830184612b0c565b60008060408385031215612b6d57600080fd5b8235612b78816126e4565b915060208301358015158114612a3e57600080fd5b600080600060608486031215612ba257600080fd5b8335612bad816126e4565b92506020840135612bbd816126e4565b9150604084013567ffffffffffffffff811115612bd957600080fd5b840160c08187031215612beb57600080fd5b809150509250925092565b600060208284031215612c0857600080fd5b813561ffff81168114611c7d57600080fd5b60008060408385031215612c2d57600080fd5b8235612c38816126e4565b9150602083013567ffffffffffffffff811115612c5457600080fd5b61090985828601612886565b60008060408385031215612c7357600080fd5b8235612c7e816126e4565b91506020830135612a3e816126e4565b600080600080600060a08688031215612ca657600080fd5b8535612cb1816126e4565b94506020860135612cc1816126e4565b93506040860135925060608601359150608086013567ffffffffffffffff811115612ceb57600080fd5b612a0c888289016128f7565b6020808252818101527f4f776e61626c653a2063616c6c6572206973206e6f7420746865206f776e6572604082015260600190565b600181811c90821680612d4057607f821691505b60208210811415612d6157634e487b7160e01b600052602260045260246000fd5b50919050565b634e487b7160e01b600052601160045260246000fd5b6000816000190483118215151615612d9757612d97612d67565b500290565b600082612db957634e487b7160e01b600052601260045260246000fd5b500490565b60208082526025908201527f455243313135353a207472616e7366657220746f20746865207a65726f206164604082015264647265737360d81b606082015260800190565b634e487b7160e01b600052603260045260246000fd5b6020808252602a908201527f455243313135353a20696e73756666696369656e742062616c616e636520666f60408201526939103a3930b739b332b960b11b606082015260800190565b600082821015612e7557612e75612d67565b500390565b60008219821115612e8d57612e8d612d67565b500190565b6000600019821415612ea657612ea6612d67565b5060010190565b604081526000612ec06040830185612b0c565b82810360208401526126428185612b0c565b6000808335601e19843603018112612ee957600080fd5b83018035915067ffffffffffffffff821115612f0457600080fd5b602001915036819003821315612f1957600080fd5b9250929050565b6001600160a01b0386811682528516602082015260a060408201819052600090612f4c90830186612b0c565b8281036060840152612f5e8186612b0c565b90508281036080840152612f7281856127a5565b98975050505050505050565b600060208284031215612f9057600080fd5b8151611c7d81612725565b600060033d1115612fb45760046000803e5060005160e01c5b90565b600060443d1015612fc55790565b6040516003193d81016004833e81513d67ffffffffffffffff8160248401118184111715612ff557505050505090565b828501915081518181111561300d5750505050505090565b843d87010160208285010111156130275750505050505090565b61303660208286010187612835565b509095945050505050565b60208082526028908201527f455243313135353a204552433131353552656365697665722072656a656374656040820152676420746f6b656e7360c01b606082015260800190565b7f416363657373436f6e74726f6c3a206163636f756e74200000000000000000008152600083516130c1816017850160208801612775565b7001034b99036b4b9b9b4b733903937b6329607d1b60179184019182015283516130f2816028840160208801612775565b01602801949350505050565b86815285602082015284604082015261ffff60f01b8460f01b166060820152818360628301376000910160620190815295945050505050565b6001600160a01b03868116825285166020820152604081018490526060810183905260a060808201819052600090613171908301846127a5565b979650505050505050565b60008161318b5761318b612d67565b50600019019056fea2646970667358221220a595a5b78d20e969d19f27dd639aa1c20d258488096316df7f005a10639aecc564736f6c634300080a0033",
  "linkReferences": {},
  "deployedLinkReferences": {}
}