{
  "_format": "hh-sol-artifact-1",
  "contractName": "NFT721LazyMint",
  "sourceName": "contracts/NFT721LazyMint.sol",
  "abi": [
    {
      "inputs": [
        {
          "internalType": "string",
          "name": "_name",
          "type": "string"
        },
        {
          "internalType": "string",
          "name": "_symbol",
          "type": "string"
        },
        {
          "internalType": "address payable",
          "name": "_feeRecipient",
          "type": "address"
        },
        {
          "internalType": "uint16",
          "name": "_platformFee",
          "type": "uint16"
        }
      ],
      "stateMutability": "nonpayable",
      "type": "constructor"
    },
    {
      "anonymous": false,
      "inputs": [
        {
          "indexed": true,
          "internalType": "address",
          "name": "owner",
          "type": "address"
        },
        {
          "indexed": true,
          "internalType": "address",
          "name": "approved",
          "type": "address"
        },
        {
          "indexed": true,
          "internalType": "uint256",
          "name": "tokenId",
          "type": "uint256"
        }
      ],
      "name": "Approval",
      "type": "event"
    },
    {
      "anonymous": false,
      "inputs": [
        {
          "indexed": true,
          "internalType": "address",
          "name": "owner",
          "type": "address"
        },
        {
          "indexed": true,
          "internalType": "address",
          "name": "operator",
          "type": "address"
        },
        {
          "indexed": false,
          "internalType": "bool",
          "name": "approved",
          "type": "bool"
        }
      ],
      "name": "ApprovalForAll",
      "type": "event"
    },
    {
      "anonymous": false,
      "inputs": [
        {
          "indexed": true,
          "internalType": "address",
          "name": "previousOwner",
          "type": "address"
        },
        {
          "indexed": true,
          "internalType": "address",
          "name": "newOwner",
          "type": "address"
        }
      ],
      "name": "OwnershipTransferred",
      "type": "event"
    },
    {
      "anonymous": false,
      "inputs": [
        {
          "indexed": true,
          "internalType": "bytes32",
          "name": "role",
          "type": "bytes32"
        },
        {
          "indexed": true,
          "internalType": "bytes32",
          "name": "previousAdminRole",
          "type": "bytes32"
        },
        {
          "indexed": true,
          "internalType": "bytes32",
          "name": "newAdminRole",
          "type": "bytes32"
        }
      ],
      "name": "RoleAdminChanged",
      "type": "event"
    },
    {
      "anonymous": false,
      "inputs": [
        {
          "indexed": true,
          "internalType": "bytes32",
          "name": "role",
          "type": "bytes32"
        },
        {
          "indexed": true,
          "internalType": "address",
          "name": "account",
          "type": "address"
        },
        {
          "indexed": true,
          "internalType": "address",
          "name": "sender",
          "type": "address"
        }
      ],
      "name": "RoleGranted",
      "type": "event"
    },
    {
      "anonymous": false,
      "inputs": [
        {
          "indexed": true,
          "internalType": "bytes32",
          "name": "role",
          "type": "bytes32"
        },
        {
          "indexed": true,
          "internalType": "address",
          "name": "account",
          "type": "address"
        },
        {
          "indexed": true,
          "internalType": "address",
          "name": "sender",
          "type": "address"
        }
      ],
      "name": "RoleRevoked",
      "type": "event"
    },
    {
      "anonymous": false,
      "inputs": [
        {
          "indexed": true,
          "internalType": "uint256",
          "name": "tokenId",
          "type": "uint256"
        },
        {
          "indexed": true,
          "internalType": "address",
          "name": "creator",
          "type": "address"
        },
        {
          "indexed": true,
          "internalType": "address",
          "name": "buyer",
          "type": "address"
        },
        {
          "indexed": false,
          "internalType": "uint256",
          "name": "sellingPrice",
          "type": "uint256"
        }
      ],
      "name": "TokenMintedAndSold",
      "type": "event"
    },
    {
      "anonymous": false,
      "inputs": [
        {
          "indexed": true,
          "internalType": "address",
          "name": "from",
          "type": "address"
        },
        {
          "indexed": true,
          "internalType": "address",
          "name": "to",
          "type": "address"
        },
        {
          "indexed": true,
          "internalType": "uint256",
          "name": "tokenId",
          "type": "uint256"
        }
      ],
      "name": "Transfer",
      "type": "event"
    },
    {
      "anonymous": false,
      "inputs": [
        {
          "indexed": false,
          "internalType": "uint16",
          "name": "platformFee",
          "type": "uint16"
        }
      ],
      "name": "UpdatePlatformFee",
      "type": "event"
    },
    {
      "anonymous": false,
      "inputs": [
        {
          "indexed": false,
          "internalType": "address payable",
          "name": "platformFeeRecipient",
          "type": "address"
        }
      ],
      "name": "UpdatePlatformFeeRecipient",
      "type": "event"
    },
    {
      "inputs": [],
      "name": "DEFAULT_ADMIN_ROLE",
      "outputs": [
        {
          "internalType": "bytes32",
          "name": "",
          "type": "bytes32"
        }
      ],
      "stateMutability": "view",
      "type": "function"
    },
    {
      "inputs": [
        {
          "internalType": "address",
          "name": "to",
          "type": "address"
        },
        {
          "internalType": "uint256",
          "name": "tokenId",
          "type": "uint256"
        }
      ],
      "name": "approve",
      "outputs": [],
      "stateMutability": "nonpayable",
      "type": "function"
    },
    {
      "inputs": [
        {
          "internalType": "address",
          "name": "owner",
          "type": "address"
        }
      ],
      "name": "balanceOf",
      "outputs": [
        {
          "internalType": "uint256",
          "name": "",
          "type": "uint256"
        }
      ],
      "stateMutability": "view",
      "type": "function"
    },
    {
      "inputs": [
        {
          "internalType": "uint256",
          "name": "",
          "type": "uint256"
        }
      ],
      "name": "creators",
      "outputs": [
        {
          "internalType": "address",
          "name": "",
          "type": "address"
        }
      ],
      "stateMutability": "view",
      "type": "function"
    },
    {
      "inputs": [],
      "name": "feeRecipient",
      "outputs": [
        {
          "internalType": "address payable",
          "name": "",
          "type": "address"
        }
      ],
      "stateMutability": "view",
      "type": "function"
    },
    {
      "inputs": [
        {
          "internalType": "uint256",
          "name": "tokenId",
          "type": "uint256"
        }
      ],
      "name": "getApproved",
      "outputs": [
        {
          "internalType": "address",
          "name": "",
          "type": "address"
        }
      ],
      "stateMutability": "view",
      "type": "function"
    },
    {
      "inputs": [
        {
          "internalType": "bytes32",
          "name": "role",
          "type": "bytes32"
        }
      ],
      "name": "getRoleAdmin",
      "outputs": [
        {
          "internalType": "bytes32",
          "name": "",
          "type": "bytes32"
        }
      ],
      "stateMutability": "view",
      "type": "function"
    },
    {
      "inputs": [],
      "name": "getSignerAddress",
      "outputs": [
        {
          "internalType": "address",
          "name": "",
          "type": "address"
        }
      ],
      "stateMutability": "view",
      "type": "function"
    },
    {
      "inputs": [
        {
          "internalType": "bytes32",
          "name": "role",
          "type": "bytes32"
        },
        {
          "internalType": "address",
          "name": "account",
          "type": "address"
        }
      ],
      "name": "grantRole",
      "outputs": [],
      "stateMutability": "nonpayable",
      "type": "function"
    },
    {
      "inputs": [
        {
          "internalType": "bytes32",
          "name": "role",
          "type": "bytes32"
        },
        {
          "internalType": "address",
          "name": "account",
          "type": "address"
        }
      ],
      "name": "hasRole",
      "outputs": [
        {
          "internalType": "bool",
          "name": "",
          "type": "bool"
        }
      ],
      "stateMutability": "view",
      "type": "function"
    },
    {
      "inputs": [
        {
          "internalType": "address",
          "name": "owner",
          "type": "address"
        },
        {
          "internalType": "address",
          "name": "operator",
          "type": "address"
        }
      ],
      "name": "isApprovedForAll",
      "outputs": [
        {
          "internalType": "bool",
          "name": "",
          "type": "bool"
        }
      ],
      "stateMutability": "view",
      "type": "function"
    },
    {
      "inputs": [],
      "name": "name",
      "outputs": [
        {
          "internalType": "string",
          "name": "",
          "type": "string"
        }
      ],
      "stateMutability": "view",
      "type": "function"
    },
    {
      "inputs": [],
      "name": "owner",
      "outputs": [
        {
          "internalType": "address",
          "name": "",
          "type": "address"
        }
      ],
      "stateMutability": "view",
      "type": "function"
    },
    {
      "inputs": [
        {
          "internalType": "uint256",
          "name": "tokenId",
          "type": "uint256"
        }
      ],
      "name": "ownerOf",
      "outputs": [
        {
          "internalType": "address",
          "name": "",
          "type": "address"
        }
      ],
      "stateMutability": "view",
      "type": "function"
    },
    {
      "inputs": [],
      "name": "platformFee",
      "outputs": [
        {
          "internalType": "uint16",
          "name": "",
          "type": "uint16"
        }
      ],
      "stateMutability": "view",
      "type": "function"
    },
    {
      "inputs": [
        {
          "internalType": "address",
          "name": "creator",
          "type": "address"
        },
        {
          "internalType": "address",
          "name": "redeemer",
          "type": "address"
        },
        {
          "components": [
            {
              "internalType": "uint256",
              "name": "tokenId",
              "type": "uint256"
            },
            {
              "internalType": "uint256",
              "name": "sellingPrice",
              "type": "uint256"
            },
            {
              "internalType": "uint16",
              "name": "royaltyBasisPoints",
              "type": "uint16"
            },
            {
              "internalType": "string",
              "name": "tokenUri",
              "type": "string"
            },
            {
              "internalType": "bytes",
              "name": "signature",
              "type": "bytes"
            }
          ],
          "internalType": "struct NFTVoucher",
          "name": "voucher",
          "type": "tuple"
        }
      ],
      "name": "redeemToken",
      "outputs": [
        {
          "internalType": "uint256",
          "name": "",
          "type": "uint256"
        }
      ],
      "stateMutability": "payable",
      "type": "function"
    },
    {
      "inputs": [],
      "name": "renounceOwnership",
      "outputs": [],
      "stateMutability": "nonpayable",
      "type": "function"
    },
    {
      "inputs": [
        {
          "internalType": "bytes32",
          "name": "role",
          "type": "bytes32"
        },
        {
          "internalType": "address",
          "name": "account",
          "type": "address"
        }
      ],
      "name": "renounceRole",
      "outputs": [],
      "stateMutability": "nonpayable",
      "type": "function"
    },
    {
      "inputs": [
        {
          "internalType": "bytes32",
          "name": "role",
          "type": "bytes32"
        },
        {
          "internalType": "address",
          "name": "account",
          "type": "address"
        }
      ],
      "name": "revokeRole",
      "outputs": [],
      "stateMutability": "nonpayable",
      "type": "function"
    },
    {
      "inputs": [
        {
          "internalType": "uint256",
          "name": "tokenId",
          "type": "uint256"
        },
        {
          "internalType": "uint256",
          "name": "value",
          "type": "uint256"
        }
      ],
      "name": "royaltyInfo",
      "outputs": [
        {
          "internalType": "address",
          "name": "receiver",
          "type": "address"
        },
        {
          "internalType": "uint256",
          "name": "royaltyAmount",
          "type": "uint256"
        }
      ],
      "stateMutability": "view",
      "type": "function"
    },
    {
      "inputs": [
        {
          "internalType": "address",
          "name": "from",
          "type": "address"
        },
        {
          "internalType": "address",
          "name": "to",
          "type": "address"
        },
        {
          "internalType": "uint256",
          "name": "tokenId",
          "type": "uint256"
        }
      ],
      "name": "safeTransferFrom",
      "outputs": [],
      "stateMutability": "nonpayable",
      "type": "function"
    },
    {
      "inputs": [
        {
          "internalType": "address",
          "name": "from",
          "type": "address"
        },
        {
          "internalType": "address",
          "name": "to",
          "type": "address"
        },
        {
          "internalType": "uint256",
          "name": "tokenId",
          "type": "uint256"
        },
        {
          "internalType": "bytes",
          "name": "_data",
          "type": "bytes"
        }
      ],
      "name": "safeTransferFrom",
      "outputs": [],
      "stateMutability": "nonpayable",
      "type": "function"
    },
    {
      "inputs": [
        {
          "internalType": "address",
          "name": "operator",
          "type": "address"
        },
        {
          "internalType": "bool",
          "name": "approved",
          "type": "bool"
        }
      ],
      "name": "setApprovalForAll",
      "outputs": [],
      "stateMutability": "nonpayable",
      "type": "function"
    },
    {
      "inputs": [
        {
          "internalType": "address",
          "name": "to",
          "type": "address"
        },
        {
          "internalType": "uint256[]",
          "name": "tokenIds",
          "type": "uint256[]"
        }
      ],
      "name": "setCreator",
      "outputs": [],
      "stateMutability": "nonpayable",
      "type": "function"
    },
    {
      "inputs": [
        {
          "internalType": "address",
          "name": "_address",
          "type": "address"
        }
      ],
      "name": "setSignerAddress",
      "outputs": [],
      "stateMutability": "nonpayable",
      "type": "function"
    },
    {
      "inputs": [
        {
          "internalType": "bytes4",
          "name": "interfaceId",
          "type": "bytes4"
        }
      ],
      "name": "supportsInterface",
      "outputs": [
        {
          "internalType": "bool",
          "name": "",
          "type": "bool"
        }
      ],
      "stateMutability": "view",
      "type": "function"
    },
    {
      "inputs": [],
      "name": "symbol",
      "outputs": [
        {
          "internalType": "string",
          "name": "",
          "type": "string"
        }
      ],
      "stateMutability": "view",
      "type": "function"
    },
    {
      "inputs": [
        {
          "internalType": "uint256",
          "name": "tokenId",
          "type": "uint256"
        }
      ],
      "name": "tokenURI",
      "outputs": [
        {
          "internalType": "string",
          "name": "",
          "type": "string"
        }
      ],
      "stateMutability": "view",
      "type": "function"
    },
    {
      "inputs": [],
      "name": "totalSupply",
      "outputs": [
        {
          "internalType": "uint256",
          "name": "",
          "type": "uint256"
        }
      ],
      "stateMutability": "view",
      "type": "function"
    },
    {
      "inputs": [
        {
          "internalType": "address",
          "name": "from",
          "type": "address"
        },
        {
          "internalType": "address",
          "name": "to",
          "type": "address"
        },
        {
          "internalType": "uint256",
          "name": "tokenId",
          "type": "uint256"
        }
      ],
      "name": "transferFrom",
      "outputs": [],
      "stateMutability": "nonpayable",
      "type": "function"
    },
    {
      "inputs": [
        {
          "internalType": "address",
          "name": "newOwner",
          "type": "address"
        }
      ],
      "name": "transferOwnership",
      "outputs": [],
      "stateMutability": "nonpayable",
      "type": "function"
    },
    {
      "inputs": [
        {
          "internalType": "uint16",
          "name": "_platformFee",
          "type": "uint16"
        }
      ],
      "name": "updatePlatformFee",
      "outputs": [],
      "stateMutability": "nonpayable",
      "type": "function"
    },
    {
      "inputs": [
        {
          "internalType": "address payable",
          "name": "_platformFeeRecipient",
          "type": "address"
        }
      ],
      "name": "updatePlatformFeeRecipient",
      "outputs": [],
      "stateMutability": "nonpayable",
      "type": "function"
    }
  ],
  "bytecode": "0x60806040523480156200001157600080fd5b506040516200311a3803806200311a83398101604081905262000034916200027c565b8351849084906200004d90600090602085019062000109565b5080516200006390600190602084019062000109565b5050506000620000786200010560201b60201c565b600780546001600160a01b0319166001600160a01b038316908117909155604051919250906000907f8be0079c531659141344cd1fd0a4f28419497f9722a3daafe3b4186f6b6457e0908290a350600b80546001600160a01b0319166001600160a01b039390931692909217909155600d805461ffff191661ffff90921691909117905550620003609050565b3390565b828054620001179062000323565b90600052602060002090601f0160209004810192826200013b576000855562000186565b82601f106200015657805160ff191683800117855562000186565b8280016001018555821562000186579182015b828111156200018657825182559160200191906001019062000169565b506200019492915062000198565b5090565b5b8082111562000194576000815560010162000199565b634e487b7160e01b600052604160045260246000fd5b600082601f830112620001d757600080fd5b81516001600160401b0380821115620001f457620001f4620001af565b604051601f8301601f19908116603f011681019082821181831017156200021f576200021f620001af565b816040528381526020925086838588010111156200023c57600080fd5b600091505b8382101562000260578582018301518183018401529082019062000241565b83821115620002725760008385830101525b9695505050505050565b600080600080608085870312156200029357600080fd5b84516001600160401b0380821115620002ab57600080fd5b620002b988838901620001c5565b95506020870151915080821115620002d057600080fd5b50620002df87828801620001c5565b604087015190945090506001600160a01b0381168114620002ff57600080fd5b606086015190925061ffff811681146200031857600080fd5b939692955090935050565b600181811c908216806200033857607f821691505b602082108114156200035a57634e487b7160e01b600052602260045260246000fd5b50919050565b612daa80620003706000396000f3fe6080604052600436106101ee5760003560e01c806370a082311161010d578063b53a78a6116100a0578063d2a6b51a1161006f578063d2a6b51a146105c9578063d547741f146105e9578063e985e9c514610609578063f2fde38b14610652578063f5fe7f711461067257600080fd5b8063b53a78a614610540578063b88d4fde14610553578063c87b56dd14610573578063cd53d08e1461059357600080fd5b806395d89b41116100dc57806395d89b41146104d6578063a217fddf146104eb578063a22cb46514610500578063afb069521461052057600080fd5b806370a0823114610463578063715018a6146104835780638da5cb5b1461049857806391d14854146104b657600080fd5b8063248a9ca31161018557806336568abe1161015457806336568abe146103e357806342842e0e1461040357806346904840146104235780636352211e1461044357600080fd5b8063248a9ca31461032657806326232a2e146103565780632a55205a146103845780632f2ff15d146103c357600080fd5b8063095ea7b3116101c1578063095ea7b3146102a457806318160ddd146102c45780631a296e02146102e857806323b872dd1461030657600080fd5b806301ffc9a7146101f3578063046dc1661461022857806306fdde031461024a578063081812fc1461026c575b600080fd5b3480156101ff57600080fd5b5061021361020e3660046125bd565b610692565b60405190151581526020015b60405180910390f35b34801561023457600080fd5b506102486102433660046125ef565b6106cd565b005b34801561025657600080fd5b5061025f610722565b60405161021f9190612664565b34801561027857600080fd5b5061028c610287366004612677565b6107b4565b6040516001600160a01b03909116815260200161021f565b3480156102b057600080fd5b506102486102bf366004612690565b61083c565b3480156102d057600080fd5b506102da600c5481565b60405190815260200161021f565b3480156102f457600080fd5b50600a546001600160a01b031661028c565b34801561031257600080fd5b506102486103213660046126bc565b610952565b34801561033257600080fd5b506102da610341366004612677565b60009081526008602052604090206001015490565b34801561036257600080fd5b50600d546103719061ffff1681565b60405161ffff909116815260200161021f565b34801561039057600080fd5b506103a461039f3660046126fd565b610983565b604080516001600160a01b03909316835260208301919091520161021f565b3480156103cf57600080fd5b506102486103de36600461271f565b6109e1565b3480156103ef57600080fd5b506102486103fe36600461271f565b610a07565b34801561040f57600080fd5b5061024861041e3660046126bc565b610a85565b34801561042f57600080fd5b50600b5461028c906001600160a01b031681565b34801561044f57600080fd5b5061028c61045e366004612677565b610aa0565b34801561046f57600080fd5b506102da61047e3660046125ef565b610b17565b34801561048f57600080fd5b50610248610b9e565b3480156104a457600080fd5b506007546001600160a01b031661028c565b3480156104c257600080fd5b506102136104d136600461271f565b610c12565b3480156104e257600080fd5b5061025f610c3d565b3480156104f757600080fd5b506102da600081565b34801561050c57600080fd5b5061024861051b36600461274f565b610c4c565b34801561052c57600080fd5b5061024861053b366004612782565b610d11565b6102da61054e3660046127a6565b610d86565b34801561055f57600080fd5b5061024861056e366004612856565b610fca565b34801561057f57600080fd5b5061025f61058e366004612677565b611002565b34801561059f57600080fd5b5061028c6105ae366004612677565b600e602052600090815260409020546001600160a01b031681565b3480156105d557600080fd5b506102486105e436600461291a565b611179565b3480156105f557600080fd5b5061024861060436600461271f565b611208565b34801561061557600080fd5b506102136106243660046129d5565b6001600160a01b03918216600090815260056020908152604080832093909416825291909152205460ff1690565b34801561065e57600080fd5b5061024861066d3660046125ef565b61122e565b34801561067e57600080fd5b5061024861068d3660046125ef565b611319565b600061069d82611391565b806106ac57506106ac826113b2565b806106c757506001600160e01b0319821663152a902d60e11b145b92915050565b6007546001600160a01b031633146107005760405162461bcd60e51b81526004016106f790612a03565b60405180910390fd5b600a80546001600160a01b0319166001600160a01b0392909216919091179055565b60606000805461073190612a38565b80601f016020809104026020016040519081016040528092919081815260200182805461075d90612a38565b80156107aa5780601f1061077f576101008083540402835291602001916107aa565b820191906000526020600020905b81548152906001019060200180831161078d57829003601f168201915b5050505050905090565b60006107bf82611402565b6108205760405162461bcd60e51b815260206004820152602c60248201527f4552433732313a20617070726f76656420717565727920666f72206e6f6e657860448201526b34b9ba32b73a103a37b5b2b760a11b60648201526084016106f7565b506000908152600460205260409020546001600160a01b031690565b600061084782610aa0565b9050806001600160a01b0316836001600160a01b031614156108b55760405162461bcd60e51b815260206004820152602160248201527f4552433732313a20617070726f76616c20746f2063757272656e74206f776e656044820152603960f91b60648201526084016106f7565b336001600160a01b03821614806108d157506108d18133610624565b6109435760405162461bcd60e51b815260206004820152603860248201527f4552433732313a20617070726f76652063616c6c6572206973206e6f74206f7760448201527f6e6572206e6f7220617070726f76656420666f7220616c6c000000000000000060648201526084016106f7565b61094d838361141f565b505050565b61095c338261148d565b6109785760405162461bcd60e51b81526004016106f790612a73565b61094d838383611573565b60008281526009602090815260408083208151808301909252546001600160a01b038116808352600160a01b90910462ffffff169282018390529291612710906109cd9086612ada565b6109d79190612b0f565b9150509250929050565b6000828152600860205260409020600101546109fd8133611713565b61094d8383611777565b6001600160a01b0381163314610a775760405162461bcd60e51b815260206004820152602f60248201527f416363657373436f6e74726f6c3a2063616e206f6e6c792072656e6f756e636560448201526e103937b632b9903337b91039b2b63360891b60648201526084016106f7565b610a8182826117fd565b5050565b61094d83838360405180602001604052806000815250610fca565b6000818152600260205260408120546001600160a01b0316806106c75760405162461bcd60e51b815260206004820152602960248201527f4552433732313a206f776e657220717565727920666f72206e6f6e657869737460448201526832b73a103a37b5b2b760b91b60648201526084016106f7565b60006001600160a01b038216610b825760405162461bcd60e51b815260206004820152602a60248201527f4552433732313a2062616c616e636520717565727920666f7220746865207a65604482015269726f206164647265737360b01b60648201526084016106f7565b506001600160a01b031660009081526003602052604090205490565b6007546001600160a01b03163314610bc85760405162461bcd60e51b81526004016106f790612a03565b6007546040516000916001600160a01b0316907f8be0079c531659141344cd1fd0a4f28419497f9722a3daafe3b4186f6b6457e0908390a3600780546001600160a01b0319169055565b60009182526008602090815260408084206001600160a01b0393909316845291905290205460ff1690565b60606001805461073190612a38565b6001600160a01b038216331415610ca55760405162461bcd60e51b815260206004820152601960248201527f4552433732313a20617070726f766520746f2063616c6c65720000000000000060448201526064016106f7565b3360008181526005602090815260408083206001600160a01b03871680855290835292819020805460ff191686151590811790915590519081529192917f17307eab39ab6107e8899845ad3d59bd9653f200f220920489ca2b5937696c31910160405180910390a35050565b6007546001600160a01b03163314610d3b5760405162461bcd60e51b81526004016106f790612a03565b600d805461ffff191661ffff83169081179091556040519081527fcabead39256298cdf7d1228eee68b47bc54a2192283d8d93574da08d2d7ac303906020015b60405180910390a150565b600080610d9283611864565b600a549091506001600160a01b03808316911614610dfc5760405162461bcd60e51b815260206004820152602160248201527f5369676e617475726520696e76616c6964206f7220756e617574686f72697a656044820152601960fa1b60648201526084016106f7565b6000836020013511610e505760405162461bcd60e51b815260206004820152601c60248201527f546f6b656e206973206e6f74206c697374656420666f722073616c650000000060448201526064016106f7565b8260200135341015610ea45760405162461bcd60e51b815260206004820152601c60248201527f496e73756666696369656e742066756e647320746f2072656465656d0000000060448201526064016106f7565b610eaf85843561195f565b82356000818152600e6020526040902080546001600160a01b0319166001600160a01b038816179055610f2390610ee96060860186612b23565b8080601f016020809104026020016040519081016040528093929190818152602001838380828437600092019190915250611a9292505050565b610f2f85858535611573565b610f398534611b1d565b50610f55833586610f506060870160408801612782565b611c9d565b50836001600160a01b0316856001600160a01b031684600001357f64a06aadbee3d3858c4ab0a7062b9d57636e9a70f3a172736548667f51d7e37234604051610fa091815260200190565b60405180910390a46001600c6000828254610fbb9190612b71565b90915550509135949350505050565b610fd4338361148d565b610ff05760405162461bcd60e51b81526004016106f790612a73565b610ffc84848484611cd3565b50505050565b606061100d82611402565b6110735760405162461bcd60e51b815260206004820152603160248201527f45524337323155524953746f726167653a2055524920717565727920666f72206044820152703737b732bc34b9ba32b73a103a37b5b2b760791b60648201526084016106f7565b6000828152600660205260408120805461108c90612a38565b80601f01602080910402602001604051908101604052809291908181526020018280546110b890612a38565b80156111055780601f106110da57610100808354040283529160200191611105565b820191906000526020600020905b8154815290600101906020018083116110e857829003601f168201915b50505050509050600061112360408051602081019091526000815290565b9050805160001415611136575092915050565b815115611168578082604051602001611150929190612b89565b60405160208183030381529060405292505050919050565b61117184611d06565b949350505050565b6001600160a01b0382166111c15760405162461bcd60e51b815260206004820152600f60248201526e496e76616c6964206164647265737360881b60448201526064016106f7565b60005b815181101561094d5760008282815181106111e1576111e1612bb8565b602002602001015190506111f58482611ddd565b508061120081612bce565b9150506111c4565b6000828152600860205260409020600101546112248133611713565b61094d83836117fd565b6007546001600160a01b031633146112585760405162461bcd60e51b81526004016106f790612a03565b6001600160a01b0381166112bd5760405162461bcd60e51b815260206004820152602660248201527f4f776e61626c653a206e6577206f776e657220697320746865207a65726f206160448201526564647265737360d01b60648201526084016106f7565b6007546040516001600160a01b038084169216907f8be0079c531659141344cd1fd0a4f28419497f9722a3daafe3b4186f6b6457e090600090a3600780546001600160a01b0319166001600160a01b0392909216919091179055565b6007546001600160a01b031633146113435760405162461bcd60e51b81526004016106f790612a03565b600b80546001600160a01b0319166001600160a01b0383169081179091556040519081527fe57e7c1f36cc83fade34e32351e6eee7eb9da532662b1b5da10c631e8222aca790602001610d7b565b60006001600160e01b03198216637965db0b60e01b14806106c757506106c7825b60006001600160e01b031982166380ac58cd60e01b14806113e357506001600160e01b03198216635b5e139f60e01b145b806106c757506301ffc9a760e01b6001600160e01b03198316146106c7565b6000908152600260205260409020546001600160a01b0316151590565b600081815260046020526040902080546001600160a01b0319166001600160a01b038416908117909155819061145482610aa0565b6001600160a01b03167f8c5be1e5ebec7d5bd14f71427d1e84f3dd0314c0f7b2291e5b200ac8c7c3b92560405160405180910390a45050565b600061149882611402565b6114f95760405162461bcd60e51b815260206004820152602c60248201527f4552433732313a206f70657261746f7220717565727920666f72206e6f6e657860448201526b34b9ba32b73a103a37b5b2b760a11b60648201526084016106f7565b600061150483610aa0565b9050806001600160a01b0316846001600160a01b0316148061153f5750836001600160a01b0316611534846107b4565b6001600160a01b0316145b8061117157506001600160a01b0380821660009081526005602090815260408083209388168352929052205460ff16611171565b826001600160a01b031661158682610aa0565b6001600160a01b0316146115ee5760405162461bcd60e51b815260206004820152602960248201527f4552433732313a207472616e73666572206f6620746f6b656e2074686174206960448201526839903737ba1037bbb760b91b60648201526084016106f7565b6001600160a01b0382166116505760405162461bcd60e51b8152602060048201526024808201527f4552433732313a207472616e7366657220746f20746865207a65726f206164646044820152637265737360e01b60648201526084016106f7565b61165b60008261141f565b6001600160a01b0383166000908152600360205260408120805460019290611684908490612be9565b90915550506001600160a01b03821660009081526003602052604081208054600192906116b2908490612b71565b909155505060008181526002602052604080822080546001600160a01b0319166001600160a01b0386811691821790925591518493918716917fddf252ad1be2c89b69c2b068fc378daa952ba7f163c4a11628f55a4df523b3ef91a4505050565b61171d8282610c12565b610a8157611735816001600160a01b03166014611e6b565b611740836020611e6b565b604051602001611751929190612c00565b60408051601f198184030181529082905262461bcd60e51b82526106f791600401612664565b6117818282610c12565b610a815760008281526008602090815260408083206001600160a01b03851684529091529020805460ff191660011790556117b93390565b6001600160a01b0316816001600160a01b0316837f2f8788117e7eff1d82e926ec794901d17c78024a50270940304540a733656f0d60405160405180910390a45050565b6118078282610c12565b15610a815760008281526008602090815260408083206001600160a01b0385168085529252808320805460ff1916905551339285917ff6391f5c32d9c69d2a47ea670b442974b53935d1edc7fd64eb21e047a839171b9190a45050565b6000808235602084013561187e6060860160408701612782565b61188b6060870187612b23565b60405160200161189f959493929190612c75565b604051602081830303815290604052805190602001209050611958611911826040517f19457468657265756d205369676e6564204d6573736167653a0a3332000000006020820152603c8101829052600090605c01604051602081830303815290604052805190602001209050919050565b61191e6080860186612b23565b8080601f01602080910402602001604051908101604052809392919081815260200183838082843760009201919091525061200792505050565b9392505050565b6001600160a01b0382166119b55760405162461bcd60e51b815260206004820181905260248201527f4552433732313a206d696e7420746f20746865207a65726f206164647265737360448201526064016106f7565b6119be81611402565b15611a0b5760405162461bcd60e51b815260206004820152601c60248201527f4552433732313a20746f6b656e20616c7265616479206d696e7465640000000060448201526064016106f7565b6001600160a01b0382166000908152600360205260408120805460019290611a34908490612b71565b909155505060008181526002602052604080822080546001600160a01b0319166001600160a01b03861690811790915590518392907fddf252ad1be2c89b69c2b068fc378daa952ba7f163c4a11628f55a4df523b3ef908290a45050565b611a9b82611402565b611afe5760405162461bcd60e51b815260206004820152602e60248201527f45524337323155524953746f726167653a2055524920736574206f66206e6f6e60448201526d32bc34b9ba32b73a103a37b5b2b760911b60648201526084016106f7565b6000828152600660209081526040909120825161094d9284019061250b565b600d54600090819061271090611b379061ffff1685612ada565b611b419190612b0f565b600b546040519192506000916001600160a01b039091169083908381818185875af1925050503d8060008114611b93576040519150601f19603f3d011682016040523d82523d6000602084013e611b98565b606091505b5050905080611be95760405162461bcd60e51b815260206004820152601a60248201527f46656520416d6f756e74207472616e73666572206661696c656400000000000060448201526064016106f7565b60006001600160a01b038616611bff8487612be9565b604051600081818185875af1925050503d8060008114611c3b576040519150601f19603f3d011682016040523d82523d6000602084013e611c40565b606091505b5050905080611c915760405162461bcd60e51b815260206004820152601c60248201527f53656c6c65722066756e6473207472616e73666572206661696c65640000000060448201526064016106f7565b50600195945050505050565b600061ffff821615611cbd57611cb884848461ffff166120bd565b611cc9565b611cc9848460006120bd565b5060019392505050565b611cde848484611573565b611cea84848484612166565b610ffc5760405162461bcd60e51b81526004016106f790612ca7565b6060611d1182611402565b611d755760405162461bcd60e51b815260206004820152602f60248201527f4552433732314d657461646174613a2055524920717565727920666f72206e6f60448201526e3732bc34b9ba32b73a103a37b5b2b760891b60648201526084016106f7565b6000611d8c60408051602081019091526000815290565b90506000815111611dac5760405180602001604052806000815250611958565b80611db684612264565b604051602001611dc7929190612b89565b6040516020818303038152906040529392505050565b6000818152600e602052604090205481906001600160a01b03163314611e3c5760405162461bcd60e51b815260206004820152601460248201527313db9b1e4818dc99585d1bdc88185b1b1bddd95960621b60448201526064016106f7565b506000908152600e6020526040902080546001600160a01b0319166001600160a01b0392909216919091179055565b60606000611e7a836002612ada565b611e85906002612b71565b67ffffffffffffffff811115611e9d57611e9d61280f565b6040519080825280601f01601f191660200182016040528015611ec7576020820181803683370190505b509050600360fc1b81600081518110611ee257611ee2612bb8565b60200101906001600160f81b031916908160001a905350600f60fb1b81600181518110611f1157611f11612bb8565b60200101906001600160f81b031916908160001a9053506000611f35846002612ada565b611f40906001612b71565b90505b6001811115611fb8576f181899199a1a9b1b9c1cb0b131b232b360811b85600f1660108110611f7457611f74612bb8565b1a60f81b828281518110611f8a57611f8a612bb8565b60200101906001600160f81b031916908160001a90535060049490941c93611fb181612cf9565b9050611f43565b5083156119585760405162461bcd60e51b815260206004820181905260248201527f537472696e67733a20686578206c656e67746820696e73756666696369656e7460448201526064016106f7565b6000806000808451604114156120315750505060208201516040830151606084015160001a6120a7565b84516040141561205f5750505060408201516020830151906001600160ff1b0381169060ff1c601b016120a7565b60405162461bcd60e51b815260206004820152601f60248201527f45434453413a20696e76616c6964207369676e6174757265206c656e6774680060448201526064016106f7565b6120b386828585612362565b9695505050505050565b61271081111561210f5760405162461bcd60e51b815260206004820152601a60248201527f45524332393831526f79616c746965733a20546f6f206869676800000000000060448201526064016106f7565b6040805180820182526001600160a01b03938416815262ffffff928316602080830191825260009687526009905291909420935184549151909216600160a01b026001600160b81b03199091169190921617179055565b60006001600160a01b0384163b1561225957604051630a85bd0160e11b81526001600160a01b0385169063150b7a02906121aa903390899088908890600401612d10565b6020604051808303816000875af19250505080156121e5575060408051601f3d908101601f191682019092526121e291810190612d43565b60015b61223f573d808015612213576040519150601f19603f3d011682016040523d82523d6000602084013e612218565b606091505b5080516122375760405162461bcd60e51b81526004016106f790612ca7565b805181602001fd5b6001600160e01b031916630a85bd0160e11b149050611171565b506001949350505050565b6060816122885750506040805180820190915260018152600360fc1b602082015290565b8160005b81156122b2578061229c81612bce565b91506122ab9050600a83612b0f565b915061228c565b60008167ffffffffffffffff8111156122cd576122cd61280f565b6040519080825280601f01601f1916602001820160405280156122f7576020820181803683370190505b5090505b84156111715761230c600183612be9565b9150612319600a86612d60565b612324906030612b71565b60f81b81838151811061233957612339612bb8565b60200101906001600160f81b031916908160001a90535061235b600a86612b0f565b94506122fb565b60007f7fffffffffffffffffffffffffffffff5d576e7357a4501ddfe92f46681b20a08211156123df5760405162461bcd60e51b815260206004820152602260248201527f45434453413a20696e76616c6964207369676e6174757265202773272076616c604482015261756560f01b60648201526084016106f7565b8360ff16601b14806123f457508360ff16601c145b61244b5760405162461bcd60e51b815260206004820152602260248201527f45434453413a20696e76616c6964207369676e6174757265202776272076616c604482015261756560f01b60648201526084016106f7565b6040805160008082526020820180845288905260ff871692820192909252606081018590526080810184905260019060a0016020604051602081039080840390855afa15801561249f573d6000803e3d6000fd5b5050604051601f1901519150506001600160a01b0381166125025760405162461bcd60e51b815260206004820152601860248201527f45434453413a20696e76616c6964207369676e6174757265000000000000000060448201526064016106f7565b95945050505050565b82805461251790612a38565b90600052602060002090601f016020900481019282612539576000855561257f565b82601f1061255257805160ff191683800117855561257f565b8280016001018555821561257f579182015b8281111561257f578251825591602001919060010190612564565b5061258b92915061258f565b5090565b5b8082111561258b5760008155600101612590565b6001600160e01b0319811681146125ba57600080fd5b50565b6000602082840312156125cf57600080fd5b8135611958816125a4565b6001600160a01b03811681146125ba57600080fd5b60006020828403121561260157600080fd5b8135611958816125da565b60005b8381101561262757818101518382015260200161260f565b83811115610ffc5750506000910152565b6000815180845261265081602086016020860161260c565b601f01601f19169290920160200192915050565b6020815260006119586020830184612638565b60006020828403121561268957600080fd5b5035919050565b600080604083850312156126a357600080fd5b82356126ae816125da565b946020939093013593505050565b6000806000606084860312156126d157600080fd5b83356126dc816125da565b925060208401356126ec816125da565b929592945050506040919091013590565b6000806040838503121561271057600080fd5b50508035926020909101359150565b6000806040838503121561273257600080fd5b823591506020830135612744816125da565b809150509250929050565b6000806040838503121561276257600080fd5b823561276d816125da565b91506020830135801515811461274457600080fd5b60006020828403121561279457600080fd5b813561ffff8116811461195857600080fd5b6000806000606084860312156127bb57600080fd5b83356127c6816125da565b925060208401356127d6816125da565b9150604084013567ffffffffffffffff8111156127f257600080fd5b840160a0818703121561280457600080fd5b809150509250925092565b634e487b7160e01b600052604160045260246000fd5b604051601f8201601f1916810167ffffffffffffffff8111828210171561284e5761284e61280f565b604052919050565b6000806000806080858703121561286c57600080fd5b8435612877816125da565b9350602085810135612888816125da565b935060408601359250606086013567ffffffffffffffff808211156128ac57600080fd5b818801915088601f8301126128c057600080fd5b8135818111156128d2576128d261280f565b6128e4601f8201601f19168501612825565b915080825289848285010111156128fa57600080fd5b808484018584013760008482840101525080935050505092959194509250565b6000806040838503121561292d57600080fd5b8235612938816125da565b915060208381013567ffffffffffffffff8082111561295657600080fd5b818601915086601f83011261296a57600080fd5b81358181111561297c5761297c61280f565b8060051b915061298d848301612825565b81815291830184019184810190898411156129a757600080fd5b938501935b838510156129c5578435825293850193908501906129ac565b8096505050505050509250929050565b600080604083850312156129e857600080fd5b82356129f3816125da565b91506020830135612744816125da565b6020808252818101527f4f776e61626c653a2063616c6c6572206973206e6f7420746865206f776e6572604082015260600190565b600181811c90821680612a4c57607f821691505b60208210811415612a6d57634e487b7160e01b600052602260045260246000fd5b50919050565b60208082526031908201527f4552433732313a207472616e736665722063616c6c6572206973206e6f74206f6040820152701ddb995c881b9bdc88185c1c1c9bdd9959607a1b606082015260800190565b634e487b7160e01b600052601160045260246000fd5b6000816000190483118215151615612af457612af4612ac4565b500290565b634e487b7160e01b600052601260045260246000fd5b600082612b1e57612b1e612af9565b500490565b6000808335601e19843603018112612b3a57600080fd5b83018035915067ffffffffffffffff821115612b5557600080fd5b602001915036819003821315612b6a57600080fd5b9250929050565b60008219821115612b8457612b84612ac4565b500190565b60008351612b9b81846020880161260c565b835190830190612baf81836020880161260c565b01949350505050565b634e487b7160e01b600052603260045260246000fd5b6000600019821415612be257612be2612ac4565b5060010190565b600082821015612bfb57612bfb612ac4565b500390565b7f416363657373436f6e74726f6c3a206163636f756e7420000000000000000000815260008351612c3881601785016020880161260c565b7001034b99036b4b9b9b4b733903937b6329607d1b6017918401918201528351612c6981602884016020880161260c565b01602801949350505050565b85815284602082015261ffff60f01b8460f01b1660408201528183604283013760009101604201908152949350505050565b60208082526032908201527f4552433732313a207472616e7366657220746f206e6f6e20455243373231526560408201527131b2b4bb32b91034b6b83632b6b2b73a32b960711b606082015260800190565b600081612d0857612d08612ac4565b506000190190565b6001600160a01b03858116825284166020820152604081018390526080606082018190526000906120b390830184612638565b600060208284031215612d5557600080fd5b8151611958816125a4565b600082612d6f57612d6f612af9565b50069056fea2646970667358221220b5f674b4c0e7ec42c65679a8e60d16532459a726b8f19f4b4328eb3299cee94b64736f6c634300080a0033",
  "linkReferences": {},
  "deployedLinkReferences": {}
}